{
  "contractName": "EtherTransfer",
  "abi": [
    {
      "inputs": [
        {
          "internalType": "address",
          "name": "_receiver",
          "type": "address"
        }
      ],
      "stateMutability": "nonpayable",
      "type": "constructor"
    },
    {
      "inputs": [],
      "name": "receiver",
      "outputs": [
        {
          "internalType": "address",
          "name": "",
          "type": "address"
        }
      ],
      "stateMutability": "view",
      "type": "function"
    },
    {
      "inputs": [
        {
          "internalType": "address",
          "name": "_receiver",
          "type": "address"
        }
      ],
      "name": "setReceiver",
      "outputs": [],
      "stateMutability": "nonpayable",
      "type": "function"
    },
    {
      "inputs": [],
      "name": "transferEther",
      "outputs": [],
      "stateMutability": "payable",
      "type": "function"
    },
    {
      "inputs": [],
      "name": "getReceiver",
      "outputs": [
        {
          "internalType": "address",
          "name": "",
          "type": "address"
        }
      ],
      "stateMutability": "view",
      "type": "function"
    }
  ],
  "bytecode": "0x608060405234801561000f575f80fd5b50604051610466380380610466833981810160405281019061003191906100d4565b805f806101000a81548173ffffffffffffffffffffffffffffffffffffffff021916908373ffffffffffffffffffffffffffffffffffffffff160217905550506100ff565b5f80fd5b5f73ffffffffffffffffffffffffffffffffffffffff82169050919050565b5f6100a38261007a565b9050919050565b6100b381610099565b81146100bd575f80fd5b50565b5f815190506100ce816100aa565b92915050565b5f602082840312156100e9576100e8610076565b5b5f6100f6848285016100c0565b91505092915050565b61035a8061010c5f395ff3fe60806040526004361061003e575f3560e01c8063718da7ee1461004257806398aca9221461006a578063c9b25f0f14610094578063f7260d3e1461009e575b5f80fd5b34801561004d575f80fd5b5061006860048036038101906100639190610259565b6100c8565b005b348015610075575f80fd5b5061007e61010a565b60405161008b9190610293565b60405180910390f35b61009c610131565b005b3480156100a9575f80fd5b506100b26101d8565b6040516100bf9190610293565b60405180910390f35b805f806101000a81548173ffffffffffffffffffffffffffffffffffffffff021916908373ffffffffffffffffffffffffffffffffffffffff16021790555050565b5f805f9054906101000a900473ffffffffffffffffffffffffffffffffffffffff16905090565b5f3411610173576040517f08c379a000000000000000000000000000000000000000000000000000000000815260040161016a90610306565b60405180910390fd5b5f8054906101000a900473ffffffffffffffffffffffffffffffffffffffff1673ffffffffffffffffffffffffffffffffffffffff166108fc3490811502906040515f60405180830381858888f193505050501580156101d5573d5f803e3d5ffd5b50565b5f8054906101000a900473ffffffffffffffffffffffffffffffffffffffff1681565b5f80fd5b5f73ffffffffffffffffffffffffffffffffffffffff82169050919050565b5f610228826101ff565b9050919050565b6102388161021e565b8114610242575f80fd5b50565b5f813590506102538161022f565b92915050565b5f6020828403121561026e5761026d6101fb565b5b5f61027b84828501610245565b91505092915050565b61028d8161021e565b82525050565b5f6020820190506102a65f830184610284565b92915050565b5f82825260208201905092915050565b7f416d6f756e74206d7573742062652067726561746572207468616e20300000005f82015250565b5f6102f0601d836102ac565b91506102fb826102bc565b602082019050919050565b5f6020820190508181035f83015261031d816102e4565b905091905056fea264697066735822122002fa99686cfff817c89137e4a04d9926b03f149e5cb6d81b9812de47c30b5b0664736f6c63430008150033",
  "immutableReferences": {},
  "source": "// SPDX-License-Identifier: MIT\r\npragma solidity ^0.8.0;\r\n\r\ncontract EtherTransfer {\r\n\r\n    address public receiver;\r\n\r\n    // Constructor that sets the initial receiver address\r\n    constructor(address _receiver) {\r\n        receiver = _receiver;\r\n    }\r\n\r\n    // Function to set a new receiver address\r\n    function setReceiver(address _receiver) public {\r\n        receiver = _receiver;\r\n    }\r\n\r\n    // Function to transfer Ether to the receiver\r\n    function transferEther() public payable {\r\n        require(msg.value > 0, \"Amount must be greater than 0\");\r\n        payable(receiver).transfer(msg.value);  // Transfers Ether to the receiver\r\n    }\r\n\r\n    // Function to retrieve the current receiver's address\r\n    function getReceiver() public view returns (address) {\r\n        return receiver;\r\n    }\r\n}\r\n",
  "sourcePath": "D:\\Block-Test\\contracts\\KeyValueStore.sol",
  "compiler": {
    "name": "solc",
    "version": "0.8.21+commit.d9974bed.Emscripten.clang"
  },
  "schemaVersion": "3.4.16",
  "updatedAt": "2024-11-20T10:43:38.766Z",
  "devdoc": {
    "kind": "dev",
    "methods": {},
    "version": 1
  },
  "userdoc": {
    "kind": "user",
    "methods": {},
    "version": 1
  }
}