{
  "contractName": "IntegerStorage",
  "abi": [
    {
      "inputs": [],
      "name": "storageValue",
      "outputs": [
        {
          "internalType": "int256",
          "name": "",
          "type": "int256"
        }
      ],
      "stateMutability": "view",
      "type": "function",
      "constant": true
    },
    {
      "inputs": [
        {
          "internalType": "int256",
          "name": "_newValue",
          "type": "int256"
        }
      ],
      "name": "setValue",
      "outputs": [],
      "stateMutability": "nonpayable",
      "type": "function"
    },
    {
      "inputs": [],
      "name": "getValue",
      "outputs": [
        {
          "internalType": "int256",
          "name": "",
          "type": "int256"
        }
      ],
      "stateMutability": "view",
      "type": "function",
      "constant": true
    }
  ],
  "bytecode": "0x608060405234801561001057600080fd5b5060bf8061001f6000396000f3fe6080604052348015600f57600080fd5b5060043610603c5760003560e01c8063209652551460415780635093dc7d146057578063a977a973146069575b600080fd5b6000545b60405190815260200160405180910390f35b606760623660046071565b600055565b005b604560005481565b600060208284031215608257600080fd5b503591905056fea2646970667358221220e5177ba36572097830a92fa117777517f63211a12cdb1f9e50ae2b48d53a1fb464736f6c63430008150033",
  "immutableReferences": {},
  "source": "// SPDX-License-Identifier: MIT\r\npragma solidity ^0.8.21;\r\n\r\n\r\ncontract IntegerStorage {\r\n\r\nint public storageValue;\r\n\r\nfunction setValue ( int _newValue) public {\r\n\r\nstorageValue = _newValue;\r\n\r\n}\r\n\r\nfunction getValue () public view returns ( int ){\r\n\r\n    return storageValue;\r\n\r\n  }\r\n\r\n}",
  "sourcePath": "D:\\Block-Test\\contracts\\KeyValueStore.sol",
  "compiler": {
    "name": "solc",
    "version": "0.8.21+commit.d9974bed.Emscripten.clang"
  },
  "schemaVersion": "3.4.16",
  "updatedAt": "2024-12-03T22:33:14.089Z",
  "networkType": "ethereum",
  "devdoc": {
    "kind": "dev",
    "methods": {},
    "version": 1
  },
  "userdoc": {
    "kind": "user",
    "methods": {},
    "version": 1
  }
}