{
  "contractName": "KeyValueStore",
  "abi": [
    {
      "inputs": [],
      "name": "receiver",
      "outputs": [
        {
          "internalType": "address",
          "name": "",
          "type": "address"
        }
      ],
      "stateMutability": "view",
      "type": "function"
    },
    {
      "inputs": [
        {
          "internalType": "address",
          "name": "_receiver",
          "type": "address"
        }
      ],
      "name": "setReceiver",
      "outputs": [],
      "stateMutability": "nonpayable",
      "type": "function"
    },
    {
      "inputs": [],
      "name": "sendEther",
      "outputs": [],
      "stateMutability": "payable",
      "type": "function"
    },
    {
      "inputs": [],
      "name": "getReceiver",
      "outputs": [
        {
          "internalType": "address",
          "name": "",
          "type": "address"
        }
      ],
      "stateMutability": "view",
      "type": "function"
    }
  ],
  "bytecode": "0x608060405234801561000f575f80fd5b5061035a8061001d5f395ff3fe60806040526004361061003e575f3560e01c80630e29df2214610042578063718da7ee1461004c57806398aca92214610074578063f7260d3e1461009e575b5f80fd5b61004a6100c8565b005b348015610057575f80fd5b50610072600480360381019061006d9190610259565b61016f565b005b34801561007f575f80fd5b506100886101b1565b6040516100959190610293565b60405180910390f35b3480156100a9575f80fd5b506100b26101d8565b6040516100bf9190610293565b60405180910390f35b5f341161010a576040517f08c379a000000000000000000000000000000000000000000000000000000000815260040161010190610306565b60405180910390fd5b5f8054906101000a900473ffffffffffffffffffffffffffffffffffffffff1673ffffffffffffffffffffffffffffffffffffffff166108fc3490811502906040515f60405180830381858888f1935050505015801561016c573d5f803e3d5ffd5b50565b805f806101000a81548173ffffffffffffffffffffffffffffffffffffffff021916908373ffffffffffffffffffffffffffffffffffffffff16021790555050565b5f805f9054906101000a900473ffffffffffffffffffffffffffffffffffffffff16905090565b5f8054906101000a900473ffffffffffffffffffffffffffffffffffffffff1681565b5f80fd5b5f73ffffffffffffffffffffffffffffffffffffffff82169050919050565b5f610228826101ff565b9050919050565b6102388161021e565b8114610242575f80fd5b50565b5f813590506102538161022f565b92915050565b5f6020828403121561026e5761026d6101fb565b5b5f61027b84828501610245565b91505092915050565b61028d8161021e565b82525050565b5f6020820190506102a65f830184610284565b92915050565b5f82825260208201905092915050565b7f4e6f2045746865722073656e74000000000000000000000000000000000000005f82015250565b5f6102f0600d836102ac565b91506102fb826102bc565b602082019050919050565b5f6020820190508181035f83015261031d816102e4565b905091905056fea264697066735822122031a4cd80feb5216cb2f419c370018cf16a928dccad18e4739a29bb2de082cf9864736f6c63430008150033",
  "immutableReferences": {},
  "source": "// SPDX-License-Identifier: MIT\r\npragma solidity ^0.8.21;\r\n\r\ncontract KeyValueStore {\r\n    address public receiver;\r\n\r\n    // Set the receiver address\r\n    function setReceiver(address _receiver) public {\r\n        receiver = _receiver;\r\n    }\r\n\r\n    // Function to send Ether to the receiver address\r\n    function sendEther() public payable {\r\n        require(msg.value > 0, \"No Ether sent\");\r\n        payable(receiver).transfer(msg.value); // Send Ether to the receiver\r\n    }\r\n\r\n    // Check current receiver\r\n    function getReceiver() public view returns (address) {\r\n        return receiver;\r\n    }\r\n}\r\n",
  "sourcePath": "D:\\Block-Test\\contracts\\KeyValueStore.sol",
  "compiler": {
    "name": "solc",
    "version": "0.8.21+commit.d9974bed.Emscripten.clang"
  },
  "schemaVersion": "3.4.16",
  "updatedAt": "2024-11-20T11:23:48.554Z",
  "devdoc": {
    "kind": "dev",
    "methods": {},
    "version": 1
  },
  "userdoc": {
    "kind": "user",
    "methods": {},
    "version": 1
  }
}